{
  "contractName": "Blacklist",
  "abi": [
    {
      "inputs": [],
      "stateMutability": "nonpayable",
      "type": "constructor"
    },
    {
      "inputs": [
        {
          "internalType": "address",
          "name": "owner",
          "type": "address"
        }
      ],
      "name": "OwnableInvalidOwner",
      "type": "error"
    },
    {
      "inputs": [
        {
          "internalType": "address",
          "name": "account",
          "type": "address"
        }
      ],
      "name": "OwnableUnauthorizedAccount",
      "type": "error"
    },
    {
      "anonymous": false,
      "inputs": [
        {
          "indexed": true,
          "internalType": "address",
          "name": "previousOwner",
          "type": "address"
        },
        {
          "indexed": true,
          "internalType": "address",
          "name": "newOwner",
          "type": "address"
        }
      ],
      "name": "OwnershipTransferred",
      "type": "event"
    },
    {
      "inputs": [],
      "name": "owner",
      "outputs": [
        {
          "internalType": "address",
          "name": "",
          "type": "address"
        }
      ],
      "stateMutability": "view",
      "type": "function",
      "constant": true
    },
    {
      "inputs": [],
      "name": "renounceOwnership",
      "outputs": [],
      "stateMutability": "nonpayable",
      "type": "function"
    },
    {
      "inputs": [
        {
          "internalType": "address",
          "name": "newOwner",
          "type": "address"
        }
      ],
      "name": "transferOwnership",
      "outputs": [],
      "stateMutability": "nonpayable",
      "type": "function"
    },
    {
      "inputs": [
        {
          "internalType": "address[]",
          "name": "blArray",
          "type": "address[]"
        }
      ],
      "name": "setBlacklist",
      "outputs": [],
      "stateMutability": "nonpayable",
      "type": "function"
    },
    {
      "inputs": [
        {
          "internalType": "address[]",
          "name": "blArray",
          "type": "address[]"
        }
      ],
      "name": "resetBlacklist",
      "outputs": [],
      "stateMutability": "nonpayable",
      "type": "function"
    },
    {
      "inputs": [
        {
          "internalType": "address",
          "name": "account",
          "type": "address"
        }
      ],
      "name": "isBlacklisted",
      "outputs": [
        {
          "internalType": "bool",
          "name": "",
          "type": "bool"
        }
      ],
      "stateMutability": "view",
      "type": "function",
      "constant": true
    }
  ],
  "bytecode": "0x608060405234801561001057600080fd5b50338061003757604051631e4fbdf760e01b81526000600482015260240160405180910390fd5b61004081610046565b50610096565b600080546001600160a01b038381166001600160a01b0319831681178455604051919092169283917f8be0079c531659141344cd1fd0a4f28419497f9722a3daafe3b4186f6b6457e09190a35050565b6103ea806100a56000396000f3fe608060405234801561001057600080fd5b50600436106100625760003560e01c80637018562c14610067578063715018a61461007c5780638da5cb5b14610084578063bf772491146100a4578063f2fde38b146100b7578063fe575a87146100ca575b600080fd5b61007a6100753660046102d2565b610106565b005b61007a610185565b6000546040516001600160a01b0390911681526020015b60405180910390f35b61007a6100b23660046102d2565b610199565b61007a6100c5366004610347565b610212565b6100f66100d8366004610347565b6001600160a01b031660009081526001602052604090205460ff1690565b604051901515815260200161009b565b61010e610255565b60005b818110156101805760006001600085858581811061013157610131610377565b90506020020160208101906101469190610347565b6001600160a01b031681526020810191909152604001600020805460ff1916911515919091179055806101788161038d565b915050610111565b505050565b61018d610255565b6101976000610282565b565b6101a1610255565b60005b818110156101805760018060008585858181106101c3576101c3610377565b90506020020160208101906101d89190610347565b6001600160a01b031681526020810191909152604001600020805460ff19169115159190911790558061020a8161038d565b9150506101a4565b61021a610255565b6001600160a01b03811661024957604051631e4fbdf760e01b8152600060048201526024015b60405180910390fd5b61025281610282565b50565b6000546001600160a01b031633146101975760405163118cdaa760e01b8152336004820152602401610240565b600080546001600160a01b038381166001600160a01b0319831681178455604051919092169283917f8be0079c531659141344cd1fd0a4f28419497f9722a3daafe3b4186f6b6457e09190a35050565b600080602083850312156102e557600080fd5b823567ffffffffffffffff808211156102fd57600080fd5b818501915085601f83011261031157600080fd5b81358181111561032057600080fd5b8660208260051b850101111561033557600080fd5b60209290920196919550909350505050565b60006020828403121561035957600080fd5b81356001600160a01b038116811461037057600080fd5b9392505050565b634e487b7160e01b600052603260045260246000fd5b6000600182016103ad57634e487b7160e01b600052601160045260246000fd5b506001019056fea26469706673582212201c162f2d401096f4481e76b88e7cd10fdc76bb36b5200ab695cce9ab6848c3a864736f6c63430008130033",
  "immutableReferences": {},
  "source": "// SPDX-License-Identifier: MIT\npragma solidity ^0.8.19;\n\nimport \"@openzeppelin/contracts/access/Ownable.sol\";\n\ncontract Blacklist is Ownable {\n    // address[] private _blackList;\n    mapping(address => bool) private _blacklisted;\n\n    constructor() Ownable(msg.sender){}\n\n    // Disabilita un account in blacklist\n    function setBlacklist(address[] calldata blArray) external onlyOwner {\n        for (uint256 i = 0; i < blArray.length; i++){\n            _blacklisted[blArray[i]] = true;\n        }\n    }\n\n    // Riabilita un account in blacklist\n    function resetBlacklist(address[] calldata blArray) external onlyOwner {\n        for (uint256 i = 0; i < blArray.length; i++){\n            _blacklisted[blArray[i]] = false;  \n        }\n    }\n\n    // Controlla se un account  disabilitato o meno nella blacklist\n    function isBlacklisted(address account) public view returns (bool){\n        return _blacklisted[account];\n    }\n}\n\n\n\n\n",
  "sourcePath": "/Users/francescodinardo/Token/contracts/Blacklist.sol",
  "compiler": {
    "name": "solc",
    "version": "0.8.19+commit.7dd6d404.Emscripten.clang"
  },
  "schemaVersion": "3.4.16",
  "updatedAt": "2024-06-11T20:50:58.415Z",
  "networkType": "ethereum",
  "devdoc": {
    "errors": {
      "OwnableInvalidOwner(address)": [
        {
          "details": "The owner is not a valid owner account. (eg. `address(0)`)"
        }
      ],
      "OwnableUnauthorizedAccount(address)": [
        {
          "details": "The caller account is not authorized to perform an operation."
        }
      ]
    },
    "kind": "dev",
    "methods": {
      "owner()": {
        "details": "Returns the address of the current owner."
      },
      "renounceOwnership()": {
        "details": "Leaves the contract without owner. It will not be possible to call `onlyOwner` functions. Can only be called by the current owner. NOTE: Renouncing ownership will leave the contract without an owner, thereby disabling any functionality that is only available to the owner."
      },
      "transferOwnership(address)": {
        "details": "Transfers ownership of the contract to a new account (`newOwner`). Can only be called by the current owner."
      }
    },
    "version": 1
  },
  "userdoc": {
    "kind": "user",
    "methods": {},
    "version": 1
  }
}